:020000040800F2
:100000000050002091340008150D00081B0D000859
:10001000210D0008270D00082D0D0008000000002C
:10002000000000000000000000000000330D000888
:100030003F0D0008000000004B0D0008570D0008A0
:10004000D9340008D9340008D9340008D93400085C
:10005000D9340008D9340008D9340008D93400084C
:10006000D9340008D9340008D9340008D93400083C
:10007000D9340008D9340008D9340008D93400082C
:10008000D9340008D9340008D9340008D93400081C
:10009000D9340008D9340008D9340008D93400080C
:1000A000D9340008D9340008D9340008D9340008FC
:1000B000650D0008D9340008D9340008D934000887
:1000C000D9340008D9340008D9340008D9340008DC
:1000D000D9340008D9340008790D0008D934000853
:1000E000D9340008D9340008D934000800000000D1
:1000F0000000000000000000000000000000000000
:0C01000000000000000000005FF808F1A3
:10010C0010B5054C237833B9044B13B10448AFF345
:10011C0000800123237010BD24000020000000008B
:10012C003435000808B5034B1BB103490348AFF342
:10013C00008008BD000000002800002034350008B5
:10014C0080B582B000AF00237B60A7E0584A7B6883
:10015C0013441978574A7B6813440A461A70564A56
:10016C007B6813441978524A7B6813440A461A7008
:10017C007B68002B0BD10221504801F08DFA03460D
:10018C0019464D4A7B6813440A461A702BE07B686B
:10019C00012B0BD11021494801F07EFA0346194678
:1001AC00454A7B6813440A461A701CE07B68022B94
:1001BC000BD10121424801F06FFA034619463E4A21
:1001CC007B6813440A461A700DE07B68032B0AD136
:1001DC0001213A4801F060FA03461946364A7B6819
:1001EC0013440A461A70344A7B6813441A7830490F
:1001FC007B680B441B789A424DD12D4A7B68134483
:10020C001A782C497B680B441B789A4243D12D4AAF
:10021C007B6813441A7827497B680B441B789A42F5
:10022C0019D0244A7B6813441978264A7B681344F6
:10023C000A461A70234A7B6813441B78002B2AD178
:10024C00214A7B68134401221A70204A7B6864217E
:10025C0022F813101FE01D4A7B6832F81330013B63
:10026C0099B21A4A7B6822F81310184A7B6832F844
:10027C001330002B0FD1134A7B6813441B78002BCF
:10028C0004D1134A7B68134401221A700F4A7B680D
:10029C00642122F813107B6801337B607B68032B8D
:1002AC007FF754AF00BF00BF0837BD4680BD00BF0D
:1002BC00480000204C0000204400002000080140B1
:1002CC00000C014040000020540000205800002089
:1002DC005000002080B400AF064B1B78012B04D1DA
:1002EC00044B00221A70012300E000231846BD467F
:1002FC0080BC70475400002080B400AF064B5B7884
:10030C00012B04D1044B00225A70012300E000237E
:10031C001846BD4680BC70475400002080B400AF26
:10032C00064B9B78012B04D1044B00229A700123BD
:10033C0000E000231846BD4680BC704754000020E6
:10034C0080B400AF064B5B78012B04D1044B002228
:10035C005A70012300E000231846BD4680BC70474C
:10036C005000002080B500AF614B1B78052B00F2CC
:10037C00B28001A252F823F09D030008F303000899
:10038C0035040008E304000877040008B9040008E9
:10039C00584B1A68584B1B681A44584B1B689A42A6
:1003AC000FD000F0B7FDFFF795FF0346002B00F0D0
:1003BC0094804F4B0B221A70FFF79EFFFFF7AEFF96
:1003CC008BE04D4B1B68184600F01AFB4B4B1B681F
:1003DC00184600F02DFB4FF47A7000F041FB444BB3
:1003EC0001221A7082E000F04DFD00F03BFD444B01
:1003FC001B68012B07D13F4B1B68184600F000FB14
:10040C003B4B02221A70FFF765FF0346002B66D0A8
:10041C00374B0B221A7000F011FD00F023FDFFF793
:10042C006BFFFFF77BFF5AE000F050FD00F01AFD68
:10043C00334B1B68012B07D1304B1B68184600F05F
:10044C00DFFA2B4B04221A70FFF744FF0346002BF4
:10045C0047D0274B0B221A7000F0F0FC00F002FD85
:10046C00FFF74AFFFFF75AFF3BE000F0E7FC00F014
:10047C001DFD244B1B68012B07D11E4B1B68184616
:10048C0000F0D6FA1A4B05221A70FFF723FF034629
:10049C00002B28D0164B0B221A7000F0CFFC00F06A
:1004AC00E1FCFFF729FFFFF739FF1CE000F0C6FC69
:1004BC0000F020FDFFF70EFF0346002B15D00C4B70
:1004CC000B221A7000F0BAFC00F0CCFCFFF714FF02
:1004DC00FFF724FF09E000BF08E000BF06E000BF03
:1004EC0004E000BF02E000BF00E000BF00BF80BD21
:1004FC006000002008000020040000200000002004
:10050C00380100204001002080B500AF574B1B780C
:10051C000D2B3CD00D2B00F3A0800B2B68D00C2B9B
:10052C0040F09B8000F066FCFFF7E6FE0346002BD4
:10053C0004D1FFF705FF0346002B0ED04C4B1A6875
:10054C004C4BA3FB02135B0B47F2305101FB03F343
:10055C00D31A03F57A73464A1360FFF7DFFE03469E
:10056C00002B03D0424B1B68434A1360FFF7B2FECB
:10057C000346002B73D03D4B0D221A7000F082FC09
:10058C0000F094FCFFF7B8FEFFF7C8FE67E000F040
:10059C00FDFBFFF7B1FE0346002B04D1FFF7D0FEA5
:1005AC000346002B0ED0354B1A68324BA3FB0213BB
:1005BC005B0B47F2305101FB03F3D31A03F57A734B
:1005CC002E4A1360FFF7AAFE0346002B03D02B4BD9
:1005DC001B682B4A1360FFF77DFE0346002B40D0AF
:1005EC00224B00221A70FFF787FEFFF797FE38E0C8
:1005FC0000F0E4FBFFF780FE0346002B04D1FFF76D
:10060C009FFE0346002B0ED01E4B1A68194BA3FB02
:10061C0002135B0B47F2305101FB03F3D31A03F5C2
:10062C007A73184A1360FFF779FE0346002B03D048
:10063C00144B1B68144A1360FFF74CFE0346002B47
:10064C0011D00A4B0C221A7000F040FC00F052FC46
:10065C00FFF752FEFFF762FE05E000BF04E000BFAB
:10066C0002E000BF00E000BF00BF80BD60000020C2
:10067C001400002073B2E745080000201000002091
:10068C00040000200C0000200000002080B500AF0A
:10069C0000F05EFC00F012F800F03EF900F050F8AB
:1006AC0000F09AF800F00EF9034801F0A7FCFFF7F0
:1006BC0059FEFFF729FFFAE76400002080B590B0DF
:1006CC0000AF07F1180328220021184602F024FF7E
:1006DC003B1D00221A605A609A60DA601A6102238C
:1006EC00BB610123BB621023FB6202237B630023EB
:1006FC00BB634FF46013FB6307F11803184601F05A
:10070C0013F80346002B01D000F074F90F237B6023
:10071C000223BB600023FB604FF480633B6100232A
:10072C007B613B1D0221184601F080FA0346002B29
:10073C0001D000F05FF900BF4037BD4680BD00001E
:10074C0080B586B000AF07F1080300221A605A602A
:10075C009A60DA603B4600221A605A601D4B4FF0DB
:10076C0080421A601B4B3F225A601A4B00229A603F
:10077C00184B40F2E732DA60164B00221A61154B27
:10078C0000229A61134801F0E9FB0346002B01D0CB
:10079C0000F030F94FF48053BB6007F108031946A1
:1007AC000C4801F09BFE0346002B01D000F022F90F
:1007BC0000233B6000237B603B461946054802F052
:1007CC00F5F90346002B01D000F014F900BF1837DF
:1007DC00BD4680BD6400002080B58EB000AF07F12F
:1007EC00280300221A605A609A60DA6007F120032D
:1007FC0000221A605A603B1D00221A605A609A60EF
:10080C00DA601A615A619A612C4B2D4A1A602B4B93
:10081C003F225A60294B00229A60284B40F2E73263
:10082C00DA60264B00221A61244B00229A6123487D
:10083C0001F094FB0346002B01D000F0DBF84FF4E1
:10084C008053BB6207F1280319461C4801F046FE91
:10085C000346002B01D000F0CDF8184801F020FC25
:10086C000346002B01D000F0C5F800233B620023A7
:10087C007B6207F120031946104802F097F90346F2
:10088C00002B01D000F0B6F860237B600023BB6026
:10089C000023FB6000237B613B1D002219460748A7
:1008AC0001F05EFD0346002B01D000F0A3F80348D5
:1008BC0000F0A6F900BF3837BD4680BDAC00002063
:1008CC000004004080B500AF114B124A1A60104B67
:1008DC004FF416525A600E4B00229A600C4B0022B9
:1008EC00DA600B4B00221A61094B0C225A61084B3F
:1008FC0000229A61064B0022DA61054802F0C6F923
:10090C000346002B01D000F075F800BF80BD00BF7E
:10091C00F40000200044004080B586B000AF07F121
:10092C00080300221A605A609A60DA602E4B9B69A9
:10093C002D4A43F0040393612B4B9B6903F0040392
:10094C007B607B68284B9B69274A43F008039361C3
:10095C00254B9B6903F008033B603B6801224FF475
:10096C008761224800F0AFFE01224FF4A0612048BD
:10097C0000F0A9FE1323BB600023FB6001233B6145
:10098C0007F1080319461A4800F002FD0123BB6069
:10099C000023FB6001233B6107F108031946134850
:1009AC0000F0F6FC4FF48763BB600123FB6000236F
:1009BC003B6102237B6107F1080319460B4800F0E9
:1009CC00E7FC4FF4A063BB600123FB6000233B6199
:1009DC0002237B6107F108031946054800F0D8FC97
:1009EC0000BF1837BD4680BD00100240000C01400E
:1009FC000008014080B400AF72B600BFFEE70000F3
:100A0C0080B483B000AF78600A231A467B68B3FBCE
:100A1C00F2F31A46044B1A60044B00221A6000BF12
:100A2C000C37BD4680BC70473C01002038010020CB
:100A3C0080B483B000AF78600A231A467B68B3FB9E
:100A4C00F2F31A46044B1A60044B00221A6000BFE2
:100A5C000C37BD4680BC704744010020400100208B
:100A6C0080B483B000AF78600A231A467B68B3FB6E
:100A7C00F2F31A46044B1A60044B00221A6000BFB2
:100A8C000C37BD4680BC70474C010020480100204B
:100A9C0080B400AF194B1B68002B0BDD174B1B6888
:100AAC00013B164A1360154B1B68002B02DC144BE0
:100ABC0001221A60134B1B68002B0BDD114B1B68BA
:100ACC00013B104A13600F4B1B68002B02DC0E4BD2
:100ADC0001221A600D4B1B68002B0BDD0B4B1B68A6
:100AEC00013B0A4A1360094B1B68002B02DC084BC4
:100AFC0001221A6000BFBD4680BC70473C0100203B
:100B0C003801002044010020400100204C0100204D
:100B1C004801002080B582B000AF7860FFF710FB71
:100B2C00FFF7B6FF00BF0837BD4680BD80B485B067
:100B3C0000AF154B9B69144A43F001039361124BB0
:100B4C009B6903F00103BB60BB680F4BDB690E4A6A
:100B5C0043F08053D3610C4BDB6903F080537B6013
:100B6C007B680A4B5B68FB60FB6823F0E063FB600F
:100B7C00FB6843F00073FB60044AFB68536000BFE2
:100B8C001437BD4680BC7047001002400000014085
:100B9C0080B584B000AF78607B681B68B3F1804F80
:100BAC0014D1154BDB69144A43F00103D361124B8A
:100BBC00DB6903F00103FB60FB68002200211C20B1
:100BCC0000F0FFFA1C2000F018FB10E07B681B689B
:100BDC000A4A93420BD1084BDB69074A43F00203E4
:100BEC00D361054BDB6903F00203BB60BB6800BF3C
:100BFC001037BD4680BD00BF00100240000400400D
:100C0C0080B588B000AF786007F1100300221A603D
:100C1C005A609A60DA607B681B680F4A934217D15E
:100C2C000E4B9B690D4A43F0040393610B4B9B697C
:100C3C0003F00403FB60FB6840233B6102237B61F0
:100C4C000223FB6107F110031946054800F0A0FBD5
:100C5C0000BF2037BD4680BD00040040001002409C
:100C6C000008014080B588B000AF786007F1100330
:100C7C0000221A605A609A60DA607B681B681F4A0F
:100C8C00934237D11E4BDB691D4A43F40033D361C9
:100C9C001B4BDB6903F40033FB60FB68184B9B694F
:100CAC00174A43F004039361154B9B6903F004034B
:100CBC00BB60BB6804233B6102237B610323FB61A4
:100CCC0007F1100319460F4800F062FB08233B6143
:100CDC0000237B610023BB6107F11003194609480F
:100CEC0000F056FB00220021262000F06AFA262094
:100CFC0000F083FA00BF2037BD4680BD00440040A1
:100D0C00001002400008014080B400AFFEE780B440
:100D1C0000AFFEE780B400AFFEE780B400AFFEE7A3
:100D2C0080B400AFFEE780B400AF00BFBD4680BC0E
:100D3C00704780B400AF00BFBD4680BC704780B424
:100D4C0000AF00BFBD4680BC704780B500AF00F05F
:100D5C0045F900BF80BD000080B500AF024801F02E
:100D6C00F7F900BF80BD00BF6400002080B500AF64
:100D7C00024801F0D9FF00BF80BD00BFF400002085
:100D8C0080B400AF00BFBD4680BC704780B500AFDB
:100D9C00084B1B68012B0BD14FF47A70FFF760FEE8
:100DAC000821054800F0A7FC1021034800F0A3FC23
:100DBC0000BF80BD48010020000C014080B500AF91
:100DCC00094B1B68012B0CD14FF47A70FFF748FECE
:100DDC004FF48061054800F08EFC2021044800F09F
:100DEC008AFC00BF80BD00BF480100200008014004
:100DFC00000C014080B500AF0D4B1B68012B14D1CA
:100E0C004FF47A70FFF72CFE08210A4800F073FCAF
:100E1C001021084800F06FFC4FF48061064800F088
:100E2C006AFC2021034800F066FC00BF80BD00BFB7
:100E3C0048010020000C01400008014080B500AFC3
:100E4C0001224FF48061054800F03DFC002208218E
:100E5C00034800F038FC00BF80BD00BF0008014013
:100E6C00000C014080B500AF01222021044800F0A5
:100E7C002AFC00221021024800F025FC00BF80BD96
:100E8C00000C014080B500AF00224FF48061054892
:100E9C0000F019FC01220821034800F014FC00BFEB
:100EAC0080BD00BF00080140000C014080B500AFC0
:100EBC0000222021044800F006FC012210210248E7
:100ECC0000F001FC00BF80BD000C014080B500AFFC
:100EDC0001224FF48061054800F0F5FB0122082146
:100EEC00034800F0F0FB00BF80BD00BF00080140CC
:100EFC00000C014080B500AF01222021044800F015
:100F0C00E2FB01221021024800F0DDFB00BF80BD96
:100F1C00000C014080B500AF00224FF480610A48FC
:100F2C0000F0D1FB00220821084800F0CCFB002285
:100F3C002021064800F0C7FB00221021034800F0D6
:100F4C00C2FB00BF80BD00BF00080140000C014087
:100F5C0080B500AF084B1B68074A43F010031360C1
:100F6C00032000F023F90F2000F008F8FFF7DEFD56
:100F7C000023184680BD00BF0020024080B582B01F
:100F8C0000AF7860124B1A68124B1B7819464FF45D
:100F9C007A73B3FBF1F3B2FBF3F3184600F03BF9B1
:100FAC000346002B01D001230EE07B680F2B0AD8DF
:100FBC00002279684FF0FF3000F003F9064A7B6895
:100FCC001360002300E0012318460837BD4680BD9E
:100FDC0018000020200000201C00002080B400AF6E
:100FEC00054B1B781A46054B1B681344034A1360C8
:100FFC0000BFBD4680BC704720000020500100207F
:10100C0080B400AF024B1B681846BD4680BC7047CD
:10101C005001002080B485B000AF78607B6803F08D
:10102C000703FB600C4BDB68BB60BA684FF6FF0331
:10103C001340BB60FB681A02BB68134343F0BF63E9
:10104C0043F40033BB60044ABB68D36000BF143761
:10105C00BD4680BC704700BF00ED00E080B400AF1F
:10106C00044BDB681B0A03F007031846BD4680BC23
:10107C00704700BF00ED00E080B483B000AF0346C2
:10108C00FB7197F90730002B0BDBFB7903F01F0288
:10109C00064997F907305B09012000FA02F241F882
:1010AC00232000BF0C37BD4680BC704700E100E038
:1010BC0080B483B000AF03463960FB7197F90730F9
:1010CC00002B0ADB3B68DAB20C4997F907301201A6
:1010DC00D2B20B4483F800230AE03B68DAB2084929
:1010EC00FB7903F00F03043B1201D2B20B441A76C6
:1010FC0000BF0C37BD4680BC704700BF00E100E06C
:10110C0000ED00E080B489B000AFF860B9607A609F
:10111C00FB6803F00703FB61FB69C3F10703042BB6
:10112C0028BF0423BB61FB690433062B02D9FB697E
:10113C00033B00E000237B614FF0FF32BB6902FAF6
:10114C0003F3DA43BB681A407B699A404FF0FF31D6
:10115C007B6901FA03F3D9437B680B4013431846B0
:10116C002437BD4680BC704780B582B000AF786034
:10117C007B68013BB3F1807F01D301230FE00A4A66
:10118C007B68013B53600F214FF0FF30FFF790FF5E
:10119C00054B00229A60044B07221A600023184664
:1011AC000837BD4680BD00BF10E000E080B582B0BE
:1011BC0000AF78607868FFF72DFF00BF0837BD4699
:1011CC0080BD80B586B000AF0346B9607A60FB7312
:1011DC0000237B61FFF742FF78617A68B968786910
:1011EC00FFF790FF024697F90F3011461846FFF7AC
:1011FC005FFF00BF1837BD4680BD80B582B000AF21
:10120C000346FB7197F907301846FFF735FF00BF0F
:10121C000837BD4680BD80B582B000AF7860786875
:10122C00FFF7A2FF034618460837BD4680BD80B4C1
:10123C0085B000AF78600023FB737B6893F8213096
:10124C00022B08D07B6804229A637B68002283F807
:10125C002020012320E07B681B681A687B681B68D0
:10126C0022F00E021A607B681B681A687B681B6888
:10127C0022F001021A607B681A6C7B68DB6B01211F
:10128C0001FA02F25A607B68012283F821207B6804
:10129C00002283F82020FB7B18461437BD4680BC07
:1012AC007047000080B584B000AF78600023FB73FA
:1012BC007B6893F82130022B05D07B6804229A635B
:1012CC000123FB7351E07B681B681A687B681B6801
:1012DC0022F00E021A607B681B681A687B681B6818
:1012EC0022F001021A607B681B68224A934229D0C3
:1012FC007B681B68204A934222D07B681B681F4A7C
:10130C0093421AD07B681B681D4A934212D07B68AB
:10131C001B681C4A93420AD07B681B681A4A93428A
:10132C0002D14FF480130EE04FF080730BE04FF4BA
:10133C00803308E04FF4805305E04FF4807302E0F3
:10134C00102300E00123114A53607B68012283F8CB
:10135C0021207B68002283F820207B685B6B002BAC
:10136C0003D07B685B6B78689847FB7B184610371B
:10137C00BD4680BD080002401C0002403000024007
:10138C0044000240580002406C0002400000024041
:10139C0080B48BB000AF7860396000237B6200238F
:1013AC003B6269E101227B6A02FA03F3FB613B6851
:1013BC001B68FA691340BB61BA69FB699A4240F039
:1013CC0058813B685B689A4A93425ED0984A934234
:1013DC0075D8984A934258D0964A93426FD8964AF9
:1013EC00934252D0944A934269D8944A93424CD037
:1013FC00924A934263D8924A934246D0904A93427F
:10140C005DD8122B2AD8122B59D801A252F823F0EE
:10141C00971400087114000883140008C514000800
:10142C00CB140008CB140008CB140008CB14000814
:10143C00CB140008CB140008CB140008CB14000804
:10144C00CB140008CB140008CB140008CB140008F4
:10145C00CB140008791400088D140008794A9342C3
:10146C0013D02CE03B68DB683B6229E03B68DB680F
:10147C0004333B6224E03B68DB6808333B621FE0CB
:10148C003B68DB680C333B621AE03B689B68002BC3
:10149C0002D104233B6213E03B689B68012B05D10E
:1014AC0008233B627B68FA691A6109E008233B62F6
:1014BC007B68FA695A6103E000233B6200E000BFDD
:1014CC00BB69FF2B01D87B6801E07B6804337B612F
:1014DC00BB69FF2B02D87B6A9B0002E07B6A083B4E
:1014EC009B003B617B691A680F213B6901FA03F38E
:1014FC00DB431A40396A3B6901FA03F31A437B69EF
:10150C001A603B685B6803F08053002B00F0B180DD
:10151C004D4B9B694C4A43F0010393614A4B9B69C9
:10152C0003F00103BB60BB68484A7B6A9B0802332B
:10153C0052F82330FB607B6A03F003039B000F22FD
:10154C0002FA03F3DB43FA681340FB607B68404A02
:10155C00934213D07B683F4A93420DD07B683E4A3E
:10156C00934207D07B683D4A934201D1032306E0A6
:10157C00042304E0022302E0012300E000237A6A42
:10158C0002F0030292009340FA681343FB602F4968
:10159C007B6A9B080233FA6841F823203B685B683E
:1015AC0003F48033002B06D02D4B1A682C49BB69F1
:1015BC0013430B6006E02A4B1A68BB69DB432849CE
:1015CC0013400B603B685B6803F40033002B06D0C0
:1015DC00234B5A682249BB6913434B6006E0204BEE
:1015EC005A68BB69DB431E4913404B603B685B6820
:1015FC0003F48013002B06D0194B9A681849BB6969
:10160C0013438B6006E0164B9A68BB69DB431449A5
:10161C0013408B603B685B6803F40013002B21D0F4
:10162C000F4BDA680E49BB691343CB6021E000BF56
:10163C0000003210000031100000221000002110B8
:10164C0000001210000011100010024000000140B8
:10165C0000080140000C0140001001400014014042
:10166C00000401400B4BDA68BB69DB4309491340AA
:10167C00CB607B6A01337B623B681A687B6A22FA17
:10168C0003F3002B7FF48EAE00BF00BF2C37BD469A
:10169C0080BC70470004014080B485B000AF786016
:1016AC000B467B807B689A687B881340002B02D0AA
:1016BC000123FB7301E00023FB73FB7B18461437FB
:1016CC00BD4680BC704780B483B000AF78600B46D9
:1016DC007B8013467B707B78002B03D07A887B68E9
:1016EC001A6103E07B881A047B681A6100BF0C370F
:1016FC00BD4680BC704780B485B000AF78600B46A7
:10170C007B807B68DB68FB607A88FB6813401A047B
:10171C00FB68D9437B880B401A437B681A6100BF76
:10172C001437BD4680BC704780B586B000AF78607A
:10173C007B68002B01D1012372E27B681B6803F0EC
:10174C000103002B00F08780924B5B6803F00C03C5
:10175C00042B0CD08F4B5B6803F00C03082B12D1BD
:10176C008C4B5B6803F48033B3F5803F0BD1894B12
:10177C001B6803F40033002B6CD07B685B68002B78
:10178C0068D101234CE27B685B68B3F5803F06D1DE
:10179C00804B1B687F4A43F4803313602EE07B68D8
:1017AC005B68002B0CD17B4B1B687A4A23F480338B
:1017BC001360784B1B68774A23F4802313601DE079
:1017CC007B685B68B3F5A02F0CD1724B1B68714A18
:1017DC0043F4802313606F4B1B686E4A43F48033D1
:1017EC0013600BE06B4B1B686A4A23F48033136065
:1017FC00684B1B68674A23F4802313607B685B6823
:10180C00002B13D0FFF7FCFB386108E0FFF7F8FB67
:10181C0002463B69D31A642B01D9032300E25D4BCA
:10182C001B6803F40033002BF0D014E0FFF7E8FB47
:10183C00386108E0FFF7E4FB02463B69D31A642BDE
:10184C0001D90323ECE1534B1B6803F40033002B49
:10185C00F0D100E000BF7B681B6803F00203002B93
:10186C0063D04C4B5B6803F00C03002B0BD0494B43
:10187C005B6803F00C03082B1CD1464B5B6803F42C
:10188C008033002B16D1434B1B6803F00203002B53
:10189C0005D07B681B69012B01D00123C0E13D4BB6
:1018AC001B6823F0F8027B685B69DB003949134342
:1018BC000B603AE07B681B69002B20D0364B012271
:1018CC001A60FFF79DFB386108E0FFF799FB0246B1
:1018DC003B69D31A022B01D90323A1E12D4B1B68C1
:1018EC0003F00203002BF0D02A4B1B6823F0F80204
:1018FC007B685B69DB00274913430B6015E0264BC3
:10190C0000221A60FFF77CFB386108E0FFF778FBD8
:10191C0002463B69D31A022B01D9032380E11D4BEC
:10192C001B6803F00203002BF0D17B681B6803F0EB
:10193C000803002B3AD07B689B69002B19D0174BFE
:10194C0001221A60FFF75CFB386108E0FFF758FBD7
:10195C0002463B69D31A022B01D9032360E10D4BDC
:10196C005B6A03F00203002BF0D0012000F0D8FAE0
:10197C001CE00A4B00221A60FFF742FB38610FE0B3
:10198C00FFF73EFB02463B69D31A022B08D903230F
:10199C0046E100BF00100240000042428004424277
:1019AC00924B5B6A03F00203002BE9D17B681B6846
:1019BC0003F00403002B00F0A6800023FB758B4B77
:1019CC00DB6903F08053002B0DD1884BDB69874A10
:1019DC0043F08053D361854BDB6903F08053BB60CC
:1019EC00BB680123FB75824B1B6803F48073002BCF
:1019FC0018D17F4B1B687E4A43F480731360FFF74A
:101A0C00FFFA386108E0FFF7FBFA02463B69D31A8C
:101A1C00642B01D9032303E1754B1B6803F480731A
:101A2C00002BF0D07B68DB68012B06D16F4B1B6A57
:101A3C006E4A43F0010313622DE07B68DB68002BD8
:101A4C000CD16A4B1B6A694A23F001031362674B82
:101A5C001B6A664A23F0040313621CE07B68DB6894
:101A6C00052B0CD1614B1B6A604A43F004031362D3
:101A7C005E4B1B6A5D4A43F0010313620BE05B4B48
:101A8C001B6A5A4A23F001031362584B1B6A574ACC
:101A9C0023F0040313627B68DB68002B15D0FFF77F
:101AAC00AFFA38610AE0FFF7ABFA02463B69D31A8A
:101ABC0041F28832934201D90323B1E04B4B1B6AAC
:101ACC0003F00203002BEED014E0FFF799FA386113
:101ADC000AE0FFF795FA02463B69D31A41F28832C5
:101AEC00934201D903239BE0404B1B6A03F0020392
:101AFC00002BEED1FB7D012B05D13C4BDB693B4A26
:101B0C0023F08053D3617B68DB69002B00F0878066
:101B1C00364B5B6803F00C03082B61D07B68DB69E8
:101B2C00022B46D1334B00221A60FFF769FA386159
:101B3C0008E0FFF765FA02463B69D31A022B01D97C
:101B4C0003236DE0294B1B6803F00073002BF0D1CD
:101B5C007B681B6AB3F5803F08D1244B5B6823F488
:101B6C0000327B689B68214913434B601F4B5B68B9
:101B7C0023F474127B68196A7B685B6A0B431B49FC
:101B8C0013434B601B4B01221A60FFF739FA386183
:101B9C0008E0FFF735FA02463B69D31A022B01D94C
:101BAC0003233DE0114B1B6803F00073002BF0D0B6
:101BBC0035E0104B00221A60FFF722FA386108E07A
:101BCC00FFF71EFA02463B69D31A022B01D90323F5
:101BDC0026E0064B1B6803F00073002BF0D11EE0CF
:101BEC007B68DB69012B07D1012319E0001002404F
:101BFC0000700040600042420B4B5B68FB60FB686E
:101C0C0003F480327B681B6A9A4206D1FB6803F4AA
:101C1C0070127B685B6A9A4201D0012300E00023BA
:101C2C0018461837BD4680BD0010024080B584B000
:101C3C0000AF786039607B68002B01D10123D0E0C4
:101C4C006A4B1B6803F007033A689A4210D9674B3A
:101C5C001B6823F0070265493B6813430B60634B19
:101C6C001B6803F007033A689A4201D00123B8E0DD
:101C7C007B681B6803F00203002B20D07B681B6879
:101C8C0003F00403002B05D0594B5B68584A43F40E
:101C9C00E06353607B681B6803F00803002B05D0DE
:101CAC00534B5B68524A43F460535360504B5B6830
:101CBC0023F0F0027B689B684D4913434B607B68B3
:101CCC001B6803F00103002B40D07B685B68012B81
:101CDC0007D1474B1B6803F40033002B15D10123AC
:101CEC007FE07B685B68022B07D1414B1B6803F0DC
:101CFC000073002B09D1012373E03D4B1B6803F0EB
:101D0C000203002B01D101236BE0394B5B6823F0FC
:101D1C0003027B685B68364913434B60FFF770F92D
:101D2C00F8600AE0FFF76CF90246FB68D31A41F23F
:101D3C008832934201D9032353E02D4B5B6803F0A7
:101D4C000C027B685B689B009A42EBD1274B1B68AB
:101D5C0003F007033A689A4210D2244B1B6823F015
:101D6C00070222493B6813430B60204B1B6803F0AE
:101D7C0007033A689A4201D0012332E07B681B6862
:101D8C0003F00403002B08D0194B5B6823F4E062CA
:101D9C007B68DB68164913434B607B681B6803F058
:101DAC000803002B09D0124B5B6823F460527B684C
:101DBC001B69DB000E4913434B6000F021F802460F
:101DCC000B4B5B681B0903F00F030A49CB5C22FA2F
:101DDC0003F3094A1360094B1B681846FFF7CEF84A
:101DEC00002318461037BD4680BD00BF00200240BE
:101DFC00001002405C350008180000201C00002078
:101E0C0090B48AB000AF294B3C1D0FCB84E80F0077
:101E1C0040F201233B800023FB610023BB610023C4
:101E2C007B6200237B6100233B62214B5B68FB617F
:101E3C00FB6903F00C03042B02D0082B03D02BE01E
:101E4C001C4B3B622BE0FB699B0C03F00F0328330C
:101E5C003B4413F8243C7B61FB6903F48033002B77
:101E6C0012D0134B5B685B0C03F0010328333B442B
:101E7C0013F8283CBB617B690E4A03FB02F2BB6979
:101E8C00B2FBF3F37B6204E07B690B4A02FB03F3C6
:101E9C007B627B6A3B6202E0064B3B6200BF3B6AA3
:101EAC0018462837BD4690BC704700BF4C3500081B
:101EBC000010024000127A0000093D0080B400AF0F
:101ECC00024B1B681846BD4680BC704718000020AA
:101EDC0080B500AFFFF7F2FF0246054B5B681B0AAB
:101EEC0003F007030349CB5C22FA03F3184680BDC9
:101EFC00001002406C35000880B500AFFFF7DEFF24
:101F0C000246054B5B68DB0A03F007030349CB5C15
:101F1C0022FA03F3184680BD001002406C3500080D
:101F2C0080B485B000AF78600A4B1B680A4AA2FBEC
:101F3C0003235B0A7A6802FB03F3FB6000BFFB68B8
:101F4C005A1EFA60002BF9D100BF00BF1437BD46F2
:101F5C0080BC704718000020D34D621080B582B051
:101F6C0000AF78607B68002B01D1012341E07B68D6
:101F7C0093F83D30DBB2002B06D17B68002283F84E
:101F8C003C207868FEF704FE7B68022283F83D2033
:101F9C007B681A687B6804331946104600F086FB90
:101FAC007B68012283F846207B68012283F83E205F
:101FBC007B68012283F83F207B68012283F8402054
:101FCC007B68012283F841207B68012283F8422040
:101FDC007B68012283F843207B68012283F844202C
:101FEC007B68012283F845207B68012283F83D2021
:101FFC00002318460837BD4680BD000080B485B06C
:10200C0000AF78607B6893F83D30DBB2012B01D0D8
:10201C0001233AE07B68022283F83D207B681B6831
:10202C00DA687B681B6842F00102DA607B681B6827
:10203C00184A93420ED07B681B68B3F1804F09D0CD
:10204C007B681B68144A934204D07B681B68134A54
:10205C00934211D17B681B689B6803F00703FB60FC
:10206C00FB68062B10D07B681B681A687B681B68A2
:10207C0042F001021A6007E07B681B681A687B68F3
:10208C001B6842F001021A60002318461437BD4643
:10209C0080BC7047002C0140000400400008004048
:1020AC0080B582B000AF78607B68002B01D1012332
:1020BC0041E07B6893F83D30DBB2002B06D17B68A6
:1020CC00002283F83C20786800F039F87B68022203
:1020DC0083F83D207B681A687B68043319461046E8
:1020EC0000F0E4FA7B68012283F846207B68012229
:1020FC0083F83E207B68012283F83F207B68012215
:10210C0083F840207B68012283F841207B68012200
:10211C0083F842207B68012283F843207B680122EC
:10212C0083F844207B68012283F845207B680122D8
:10213C0083F83D20002318460837BD4680BD80B487
:10214C0083B000AF786000BF0C37BD4680BC7047D1
:10215C0080B582B000AF78607B681B681B6903F0A8
:10216C000203022B22D17B681B68DB6803F002039D
:10217C00022B1BD17B681B686FF002021A617B6813
:10218C0001221A777B681B689B6903F00303002B01
:10219C0003D0786800F06FFA05E0786800F062FA16
:1021AC00786800F071FA7B6800221A777B681B68EC
:1021BC001B6903F00403042B22D17B681B68DB68CA
:1021CC0003F00403042B1BD17B681B686FF0040223
:1021DC001A617B6802221A777B681B689B6903F47F
:1021EC004073002B03D0786800F045FA05E078685E
:1021FC0000F038FA786800F047FA7B6800221A770A
:10220C007B681B681B6903F00803082B22D17B68D1
:10221C001B68DB6803F00803082B1BD17B681B6869
:10222C006FF008021A617B6804221A777B681B68BE
:10223C00DB6903F00303002B03D0786800F01BFA72
:10224C0005E0786800F00EFA786800F01DFA7B68FB
:10225C0000221A777B681B681B6903F01003102B94
:10226C0022D17B681B68DB6803F01003102B1BD199
:10227C007B681B686FF010021A617B6808221A7762
:10228C007B681B68DB6903F44073002B03D0786810
:10229C0000F0F1F905E0786800F0E4F9786800F0F6
:1022AC00F3F97B6800221A777B681B681B6903F0C3
:1022BC000103012B0ED17B681B68DB6803F0010363
:1022CC00012B07D17B681B686FF001021A617868DB
:1022DC00FEF720FC7B681B681B6903F08003802BD6
:1022EC000ED17B681B68DB6803F08003802B07D161
:1022FC007B681B686FF080021A61786800F0BDFC87
:10230C007B681B681B6903F04003402B0ED17B6874
:10231C001B68DB6803F04003402B07D17B681B680C
:10232C006FF040021A61786800F0B7F97B681B689F
:10233C001B6903F02003202B0ED17B681B68DB6824
:10234C0003F02003202B07D17B681B686FF0200261
:10235C001A61786800F088FC00BF0837BD4680BD64
:10236C0080B584B000AFF860B9607A60FB6893F810
:10237C003C30012B01D10223ACE0FB68012283F835
:10238C003C207B680C2B00F29F8001A252F823F0BA
:10239C00D1230008D5240008D5240008D524000832
:1023AC0011240008D5240008D5240008D5240008E1
:1023BC0053240008D5240008D5240008D52400088F
:1023CC0093240008FB681B68B968184600F0D0F924
:1023DC00FB681B689A69FB681B6842F008029A61EB
:1023EC00FB681B689A69FB681B6822F004029A61FF
:1023FC00FB681B689969BB681A69FB681B680A4310
:10240C009A6162E0FB681B68B968184600F016FA1E
:10241C00FB681B689A69FB681B6842F400629A614E
:10242C00FB681B689A69FB681B6822F480629A61DE
:10243C00FB681B689969BB681B691A02FB681B68FF
:10244C000A439A6141E0FB681B68B968184600F0C2
:10245C005FFAFB681B68DA69FB681B6842F00802CC
:10246C00DA61FB681B68DA69FB681B6822F00402FE
:10247C00DA61FB681B68D969BB681A69FB681B6861
:10248C000A43DA6121E0FB681B68B968184600F062
:10249C00A9FAFB681B68DA69FB681B6842F40062E6
:1024AC00DA61FB681B68DA69FB681B6822F48062DE
:1024BC00DA61FB681B68D969BB681B691A02FB6887
:1024CC001B680A43DA6100E000BFFB68002283F856
:1024DC003C20002318461037BD4680BD80B584B023
:1024EC0000AF786039607B6893F83C30012B01D1E8
:1024FC000223B3E07B68012283F83C207B68022234
:10250C0083F83D207B681B689B68FB60FB6823F0AD
:10251C007703FB60FB6823F47F43FB607B681B68DD
:10252C00FA689A603B681B68B3F5005F3ED0B3F560
:10253C00005F00F28780B3F5805F00F08580B3F513
:10254C00805F7FD8702B1AD0702B7BD8602B50D02B
:10255C00602B77D8502B3CD0502B73D8402B58D0B5
:10256C00402B6FD8302B64D0302B6BD8202B60D005
:10257C00202B67D8002B5CD0102B5AD062E07B68E4
:10258C0018683B6899683B685A683B68DB6800F0E0
:10259C00EEFA7B681B689B68FB60FB6843F0770373
:1025AC00FB607B681B68FA689A604EE07B68186871
:1025BC003B6899683B685A683B68DB6800F0D7FA5F
:1025CC007B681B689A687B681B6842F480429A603F
:1025DC003BE07B6818683B6859683B68DB681A46C7
:1025EC0000F04EFA7B681B685021184600F0A5FAE3
:1025FC002BE07B6818683B6859683B68DB681A46B7
:10260C0000F06CFA7B681B686021184600F095FAA4
:10261C001BE07B6818683B6859683B68DB681A46A6
:10262C0000F02EFA7B681B684021184600F085FAF2
:10263C000BE07B681A683B681B681946104600F073
:10264C007CFA02E000BF00E000BF7B68012283F847
:10265C003D207B68002283F83C200023184610376D
:10266C00BD4680BD80B483B000AF786000BF0C372E
:10267C00BD4680BC704780B483B000AF786000BFAB
:10268C000C37BD4680BC704780B483B000AF786017
:10269C0000BF0C37BD4680BC704780B483B000AF20
:1026AC00786000BF0C37BD4680BC704780B485B0E5
:1026BC0000AF786039607B681B68FB607B68294AD7
:1026CC0093420BD07B68B3F1804F07D07B68264ACE
:1026DC00934203D07B68254A934208D1FB6823F0D0
:1026EC007003FB603B685B68FA681343FB607B68B4
:1026FC001C4A93420BD07B68B3F1804F07D07B68A8
:10270C00194A934203D07B68184A934208D1FB685C
:10271C0023F44073FB603B68DB68FA681343FB608F
:10272C00FB6823F080023B685B691343FB607B68AA
:10273C00FA681A603B689A687B68DA623B681A68C8
:10274C007B689A627B68074A934203D13B681A699B
:10275C007B681A637B6801225A6100BF1437BD463F
:10276C0080BC7047002C0140000400400008004071
:10277C0080B487B000AF786039607B681B6A23F047
:10278C0001027B681A627B681B6A7B617B685B68F1
:10279C003B617B689B69FB60FB6823F07003FB600B
:1027AC00FB6823F00303FB603B681B68FA68134368
:1027BC00FB607B6923F002037B613B689B687A6951
:1027CC0013437B617B681C4A93420CD17B6923F0D9
:1027DC0008037B613B68DB687A6913437B617B6927
:1027EC0023F004037B617B68134A934211D13B694C
:1027FC0023F480733B613B6923F400733B613B68BA
:10280C005B693A6913433B613B689B693A691343C3
:10281C003B617B683A695A607B68FA689A613B68ED
:10282C005A687B685A637B687A691A6200BF1C37E6
:10283C00BD4680BC704700BF002C014080B487B0FF
:10284C0000AF786039607B681B6A23F010027B68EC
:10285C001A627B681B6A7B617B685B683B617B6887
:10286C009B69FB60FB6823F4E043FB60FB6823F48B
:10287C004073FB603B681B681B02FA681343FB60E8
:10288C007B6923F020037B613B689B681B017A69A1
:10289C0013437B617B681D4A93420DD17B6923F006
:1028AC0080037B613B68DB681B017A6913437B61A6
:1028BC007B6923F040037B617B68144A934213D1FC
:1028CC003B6923F480633B613B6923F400633B6108
:1028DC003B685B699B003A6913433B613B689B69AE
:1028EC009B003A6913433B617B683A695A607B6889
:1028FC00FA689A613B685A687B689A637B687A6964
:10290C001A6200BF1C37BD4680BC7047002C0140CA
:10291C0080B487B000AF786039607B681B6A23F4A1
:10292C0080727B681A627B681B6A7B617B685B6860
:10293C003B617B68DB69FB60FB6823F07003FB6029
:10294C00FB6823F00303FB603B681B68FA681343C6
:10295C00FB607B6923F400737B613B689B681B0203
:10296C007A6913437B617B681D4A93420DD17B6965
:10297C0023F400637B613B68DB681B027A691343B9
:10298C007B617B6923F480637B617B68144A93428F
:10299C0013D13B6923F480533B613B6923F400530F
:1029AC003B613B685B691B013A6913433B613B68C4
:1029BC009B691B013A6913433B617B683A695A6016
:1029CC007B68FA68DA613B685A687B68DA637B6813
:1029DC007A691A6200BF1C37BD4680BC704700BFC5
:1029EC00002C014080B487B000AF786039607B6800
:1029FC001B6A23F480527B681A627B681B6A3B61FA
:102A0C007B685B687B617B68DB69FB60FB6823F43C
:102A1C00E043FB60FB6823F44073FB603B681B687E
:102A2C001B02FA681343FB603B6923F400533B61C0
:102A3C003B689B681B033A6913433B617B680F4AF5
:102A4C00934209D17B6923F480437B613B685B69CA
:102A5C009B017A6913437B617B687A695A607B6856
:102A6C00FA68DA613B685A687B681A647B683A6971
:102A7C001A6200BF1C37BD4680BC7047002C014059
:102A8C0080B487B000AFF860B9607A60FB681B6AED
:102A9C007B61FB681B6A23F00102FB681A62FB680E
:102AAC009B693B613B6923F0F0033B617B681B0135
:102ABC003A6913433B617B6923F00A037B617A69B2
:102ACC00BB6813437B61FB683A699A61FB687A695E
:102ADC001A6200BF1C37BD4680BC704780B487B0FB
:102AEC0000AFF860B9607A60FB681B6A23F01002D3
:102AFC00FB681A62FB689B697B61FB681B6A3B6124
:102B0C007B6923F470437B617B681B037A691343F5
:102B1C007B613B6923F0A0033B61BB681B013A69F5
:102B2C0013433B61FB687A699A61FB683A691A62E4
:102B3C0000BF1C37BD4680BC704780B485B000AF69
:102B4C00786039607B689B68FB60FB6823F07003DE
:102B5C00FB603A68FB68134343F00703FB607B6838
:102B6C00FA689A6000BF1437BD4680BC704780B4C9
:102B7C0087B000AFF860B9607A603B60FB689B6817
:102B8C007B617B6923F47F437B613B681A027B6822
:102B9C001A43BB6813437A6913437B61FB687A69F8
:102BAC009A6000BF1C37BD4680BC704780B485B0AE
:102BBC0000AF786039607B6893F83C30012B01D111
:102BCC00022346E07B68012283F83C207B680222CA
:102BDC0083F83D207B681B685B68FB607B681B6827
:102BEC009B68BB60FB6823F07003FB603B681B6851
:102BFC00FA681343FB607B681B68FA685A607B6851
:102C0C001B68164A93420ED07B681B68B3F1804F49
:102C1C0009D07B681B68124A934204D07B681B68FE
:102C2C00104A93420CD1BB6823F08003BB603B6815
:102C3C005B68BA681343BB607B681B68BA689A60B0
:102C4C007B68012283F83D207B68002283F83C20BE
:102C5C00002318461437BD4680BC7047002C014039
:102C6C00000400400008004080B483B000AF7860DE
:102C7C0000BF0C37BD4680BC704780B483B000AF3A
:102C8C00786000BF0C37BD4680BC704780B582B001
:102C9C0000AF78607B68002B01D101233FE07B689B
:102CAC0093F83D30DBB2002B06D17B68002283F811
:102CBC003C207868FDF7D6FF7B68242283F83D2002
:102CCC007B681B68DA687B681B6822F40052DA6048
:102CDC00786800F049FB7B681B681A697B681B6885
:102CEC0022F490421A617B681B685A697B681B68E6
:102CFC0022F02A025A617B681B68DA687B681B68C1
:102D0C0042F40052DA607B6800221A647B6820224D
:102D1C0083F83D207B68202283F83E200023184650
:102D2C000837BD4680BD000080B58AB000AF786022
:102D3C007B681B681B687B627B681B68DB683B627B
:102D4C007B681B685B69FB610023BB6100237B61B3
:102D5C007B6A03F00F03BB61BB69002B0DD17B6A4F
:102D6C0003F02003002B08D03B6A03F02003002B58
:102D7C0003D0786800F04FFA7BE1BB69002B00F0C0
:102D8C00B180FB6903F00103002B05D13B6A03F40E
:102D9C009073002B00F0A6807B6A03F00103002BDC
:102DAC000AD03B6A03F48073002B05D07B681B6C44
:102DBC0043F001027B681A647B6A03F00403002B66
:102DCC000AD0FB6903F00103002B05D07B681B6C58
:102DDC0043F002027B681A647B6A03F00203002B47
:102DEC000AD0FB6903F00103002B05D07B681B6C38
:102DFC0043F004027B681A647B6A03F00803002B1F
:102E0C000FD03B6A03F02003002B04D1FB6903F0C5
:102E1C000103002B05D07B681B6C43F008027B6818
:102E2C001A647B681B6C002B00F01E817B6A03F01C
:102E3C002003002B07D03B6A03F02003002B02D0A9
:102E4C00786800F0E8F97B681B685B6903F0400365
:102E5C00002B14BF01230023DBB27B617B681B6C4E
:102E6C0003F00803002B02D17B69002B31D078686A
:102E7C0000F02AF97B681B685B6903F04003002BA8
:102E8C0023D07B681B685A697B681B6822F0400260
:102E9C005A617B689B6B002B13D07B689B6B764ACB
:102EAC005A637B689B6B1846FEF7FCF90346002BB4
:102EBC0016D07B689B6B5B6B7A68926B104698475D
:102ECC000EE0786800F0ECF80AE0786800F0E8F8BA
:102EDC0006E0786800F0E4F87B6800221A64C3E02E
:102EEC0000BFC1E07B681B6B012B40F0A1807B6AAB
:102EFC0003F01003002B00F09B803B6A03F01003DF
:102F0C00002B00F095800023FB607B681B681B681E
:102F1C00FB607B681B685B68FB60FB687B681B68FD
:102F2C005B6903F04003002B4ED07B689B6B1B68E6
:102F3C005B683B823B8A002B00F098807B689B8D02
:102F4C003A8A9A4280F092807B683A8ADA857B686A
:102F5C009B6B9B69202B2BD07B681B68DA687B688A
:102F6C001B6822F48072DA607B681B685A697B6884
:102F7C001B6822F001025A617B681B685A697B68E6
:102F8C001B6822F040025A617B68202283F83E20A5
:102F9C007B6800221A637B681B68DA687B681B6895
:102FAC0022F01002DA607B689B6B1846FEF73FF943
:102FBC007B689A8D7B68DB8D9BB2D31A9BB21946CA
:102FCC00786800F076F851E07B689A8D7B68DB8D31
:102FDC009BB2D31A7B827B68DB8D9BB2002B47D0D4
:102FEC007B8A002B44D07B681B68DA687B681B6883
:102FFC0022F49072DA607B681B685A697B681B68E4
:10300C0022F001025A617B68202283F83E207B6803
:10301C0000221A637B681B68DA687B681B6822F0E5
:10302C001002DA607B8A1946786800F042F81FE0DB
:10303C007B6A03F08003002B08D03B6A03F080030B
:10304C00002B03D0786800F07FF812E07B6A03F065
:10305C004003002B0DD03B6A03F04003002B08D03B
:10306C00786800F0C0F804E000BF02E000BF00E0A8
:10307C0000BF2837BD4680BD2D31000880B483B019
:10308C0000AF786000BF0C37BD4680BC704780B481
:10309C0083B000AF786000BF0C37BD4680BC704772
:1030AC0080B483B000AF786000BF0C37BD4680BCE5
:1030BC00704780B483B000AF78600B467B8000BF54
:1030CC000C37BD4680BC704780B483B000AF7860CD
:1030DC007B681B68DA687B681B6822F49072DA6084
:1030EC007B681B685A697B681B6822F001025A6175
:1030FC007B681B6B012B07D17B681B68DA687B68CC
:10310C001B6822F01002DA607B68202283F83E20D4
:10311C007B6800221A6300BF0C37BD4680BC704729
:10312C0080B584B000AF78607B685B6AFB60FB683D
:10313C000022DA85FB680022DA84F868FFF7B0FF1A
:10314C0000BF1037BD4680BD80B485B000AF78603D
:10315C007B6893F83D30DBB2212B3ED17B689B68BA
:10316C00B3F5805F14D17B681B69002B10D17B6891
:10317C001B6AFB60FB681B881A467B681B68C2F3E2
:10318C0008025A607B681B6A9A1C7B681A6208E00A
:10319C007B681B6A591C7A6811621A787B681B68F9
:1031AC005A607B68DB8C9BB2013B9BB27A681946F8
:1031BC00D184002B0FD17B681B68DA687B681B6895
:1031CC0022F08002DA607B681B68DA687B681B6817
:1031DC0042F04002DA60002300E002231846143764
:1031EC00BD4680BC704780B582B000AF78607B680C
:1031FC001B68DA687B681B6822F04002DA607B6827
:10320C00202283F83D207868FFF738FF002318460A
:10321C000837BD4680BD80B586B000AF78607B684E
:10322C0093F83E30DBB2222B40F099807B689B6890
:10323C00B3F5805F17D17B681B69002B13D100237A
:10324C007B617B689B6A3B617B681B685B689BB29C
:10325C00C3F308039AB23B691A807B689B6A9A1C79
:10326C007B689A6226E07B689B6A7B6100233B61EA
:10327C007B689B68B3F5805F07D07B689B68002BED
:10328C000AD17B681B69002B06D17B681B685B68C5
:10329C00DAB27B691A7008E07B681B685B68DBB28A
:1032AC0003F07F03DAB27B691A707B689B6A5A1C45
:1032BC007B689A627B68DB8D9BB2013B9BB27A6820
:1032CC001946D185002B48D17B681B68DA687B686E
:1032DC001B6822F02002DA607B681B68DA687B6866
:1032EC001B6822F48072DA607B681B685A697B6801
:1032FC001B6822F001025A617B68202283F83E2071
:10330C007B681B6B012B23D17B6800221A637B68C3
:10331C001B68DA687B681B6822F01002DA607B6835
:10332C001B681B6803F01003102B0AD10023FB60F1
:10333C007B681B681B68FB607B681B685B68FB60B9
:10334C00FB687B689B8D19467868FFF7B2FE02E03C
:10335C007868FFF79CFE002302E0002300E00223C4
:10336C0018461837BD4680BD80B584B000AF786074
:10337C007B681B681B6923F440517B68DA687B68A7
:10338C001B680A431A617B689A687B681B691A433D
:10339C007B685B691343BB607B681B68DB6823F449
:1033AC00B05323F00C037A681268B9680B43D360EE
:1033BC007B681B685B6923F440717B689A697B6846
:1033CC001B680A435A617B681B682C4A934203D1E1
:1033DC00FEF792FDF86002E0FEF77AFDF860FA68FD
:1033EC0013469B0013449A001A447B685B689B004D
:1033FC00B2FBF3F3224AA2FB03235B091901FA681F
:10340C0013469B0013449A001A447B685B689B002C
:10341C00B2FBF3F21A4BA3FB02035B09642000FB23
:10342C0003F3D31A1B013233154AA2FB03235B09A6
:10343C0003F0F0031944FA6813469B0013449A00F6
:10344C001A447B685B689B00B2FBF3F20C4BA3FB4A
:10345C0002035B09642000FB03F3D31A1B01323314
:10346C00074AA2FB03235B0903F00F027B681B686E
:10347C000A449A6000BF1037BD4680BD0038014039
:10348C001F85EB510C480D490D4A002302E0D4581E
:10349C00C4500433C4188C42F9D30A4A0A4C002392
:1034AC0001E013600432A242FBD3FDF769FC00F08B
:1034BC000FF8FDF7EBF87047000000202400002007
:1034CC007C3500082400002054010020FEE7000099
:1034DC0070B500260C4D0D4C641BA410A64209D1EE
:1034EC0000F022F800260A4D0A4C641BA410A642D8
:1034FC0005D170BD55F8043B98470136EEE755F8F9
:10350C00043B98470136F2E774350008743500081F
:10351C00743500087835000803460244934200D104
:10352C00704703F8011BF9E7F8B500BFF8BC08BCFD
:10353C009E467047F8B500BFF8BC08BC9E46704765
:10354C0002030405060708090A0B0C0D0E0F1010D8
:10355C000000000000000000010203040607080937
:08356C0000000000010203044D
:043574003101000819
:043578000D01000839
:10357C0010270000581B0000B80B0000E8030000E7
:10358C00E8030000E80300000024F4001000000031
:04359C00010000002A
:04000005080034912A
:00000001FF
